{
  "_format": "hh-sol-artifact-1",
  "contractName": "CompoundingStkGHST",
  "sourceName": "contracts/Token.sol",
  "abi": [
    {
      "inputs": [],
      "stateMutability": "nonpayable",
      "type": "constructor"
    },
    {
      "anonymous": false,
      "inputs": [
        {
          "indexed": true,
          "internalType": "address",
          "name": "owner",
          "type": "address"
        },
        {
          "indexed": true,
          "internalType": "address",
          "name": "spender",
          "type": "address"
        },
        {
          "indexed": false,
          "internalType": "uint256",
          "name": "value",
          "type": "uint256"
        }
      ],
      "name": "Approval",
      "type": "event"
    },
    {
      "anonymous": false,
      "inputs": [
        {
          "indexed": true,
          "internalType": "address",
          "name": "previousOwner",
          "type": "address"
        },
        {
          "indexed": true,
          "internalType": "address",
          "name": "newOwner",
          "type": "address"
        }
      ],
      "name": "OwnershipTransferred",
      "type": "event"
    },
    {
      "anonymous": false,
      "inputs": [
        {
          "indexed": false,
          "internalType": "address",
          "name": "account",
          "type": "address"
        }
      ],
      "name": "Paused",
      "type": "event"
    },
    {
      "anonymous": false,
      "inputs": [
        {
          "indexed": true,
          "internalType": "address",
          "name": "from",
          "type": "address"
        },
        {
          "indexed": true,
          "internalType": "address",
          "name": "to",
          "type": "address"
        },
        {
          "indexed": false,
          "internalType": "uint256",
          "name": "value",
          "type": "uint256"
        }
      ],
      "name": "Transfer",
      "type": "event"
    },
    {
      "anonymous": false,
      "inputs": [
        {
          "indexed": false,
          "internalType": "address",
          "name": "account",
          "type": "address"
        }
      ],
      "name": "Unpaused",
      "type": "event"
    },
    {
      "inputs": [],
      "name": "DOMAIN_SEPARATOR",
      "outputs": [
        {
          "internalType": "bytes32",
          "name": "",
          "type": "bytes32"
        }
      ],
      "stateMutability": "view",
      "type": "function"
    },
    {
      "inputs": [],
      "name": "StakingDiamond",
      "outputs": [
        {
          "internalType": "contract IGHSTStakingDiamond",
          "name": "",
          "type": "address"
        }
      ],
      "stateMutability": "view",
      "type": "function"
    },
    {
      "inputs": [],
      "name": "THOUSAND_FRENS",
      "outputs": [
        {
          "internalType": "uint256",
          "name": "",
          "type": "uint256"
        }
      ],
      "stateMutability": "view",
      "type": "function"
    },
    {
      "inputs": [],
      "name": "TICKET_ID",
      "outputs": [
        {
          "internalType": "uint8",
          "name": "",
          "type": "uint8"
        }
      ],
      "stateMutability": "view",
      "type": "function"
    },
    {
      "inputs": [],
      "name": "Token",
      "outputs": [
        {
          "internalType": "contract IERC20",
          "name": "",
          "type": "address"
        }
      ],
      "stateMutability": "view",
      "type": "function"
    },
    {
      "inputs": [
        {
          "internalType": "address",
          "name": "owner",
          "type": "address"
        },
        {
          "internalType": "address",
          "name": "spender",
          "type": "address"
        }
      ],
      "name": "allowance",
      "outputs": [
        {
          "internalType": "uint256",
          "name": "",
          "type": "uint256"
        }
      ],
      "stateMutability": "view",
      "type": "function"
    },
    {
      "inputs": [
        {
          "internalType": "address",
          "name": "spender",
          "type": "address"
        },
        {
          "internalType": "uint256",
          "name": "amount",
          "type": "uint256"
        }
      ],
      "name": "approve",
      "outputs": [
        {
          "internalType": "bool",
          "name": "",
          "type": "bool"
        }
      ],
      "stateMutability": "nonpayable",
      "type": "function"
    },
    {
      "inputs": [
        {
          "internalType": "address",
          "name": "account",
          "type": "address"
        }
      ],
      "name": "balanceOf",
      "outputs": [
        {
          "internalType": "uint256",
          "name": "",
          "type": "uint256"
        }
      ],
      "stateMutability": "view",
      "type": "function"
    },
    {
      "inputs": [
        {
          "internalType": "uint256",
          "name": "amount",
          "type": "uint256"
        }
      ],
      "name": "burn",
      "outputs": [],
      "stateMutability": "nonpayable",
      "type": "function"
    },
    {
      "inputs": [
        {
          "internalType": "address",
          "name": "account",
          "type": "address"
        },
        {
          "internalType": "uint256",
          "name": "amount",
          "type": "uint256"
        }
      ],
      "name": "burnFrom",
      "outputs": [],
      "stateMutability": "nonpayable",
      "type": "function"
    },
    {
      "inputs": [],
      "name": "decimals",
      "outputs": [
        {
          "internalType": "uint8",
          "name": "",
          "type": "uint8"
        }
      ],
      "stateMutability": "view",
      "type": "function"
    },
    {
      "inputs": [
        {
          "internalType": "address",
          "name": "spender",
          "type": "address"
        },
        {
          "internalType": "uint256",
          "name": "subtractedValue",
          "type": "uint256"
        }
      ],
      "name": "decreaseAllowance",
      "outputs": [
        {
          "internalType": "bool",
          "name": "",
          "type": "bool"
        }
      ],
      "stateMutability": "nonpayable",
      "type": "function"
    },
    {
      "inputs": [],
      "name": "depositFeeBP",
      "outputs": [
        {
          "internalType": "uint16",
          "name": "",
          "type": "uint16"
        }
      ],
      "stateMutability": "view",
      "type": "function"
    },
    {
      "inputs": [
        {
          "internalType": "uint256",
          "name": "_amount",
          "type": "uint256"
        }
      ],
      "name": "enter",
      "outputs": [],
      "stateMutability": "nonpayable",
      "type": "function"
    },
    {
      "inputs": [],
      "name": "exchangeRate",
      "outputs": [
        {
          "internalType": "uint256",
          "name": "",
          "type": "uint256"
        }
      ],
      "stateMutability": "view",
      "type": "function"
    },
    {
      "inputs": [
        {
          "internalType": "address",
          "name": "spender",
          "type": "address"
        },
        {
          "internalType": "uint256",
          "name": "addedValue",
          "type": "uint256"
        }
      ],
      "name": "increaseAllowance",
      "outputs": [
        {
          "internalType": "bool",
          "name": "",
          "type": "bool"
        }
      ],
      "stateMutability": "nonpayable",
      "type": "function"
    },
    {
      "inputs": [
        {
          "internalType": "uint256",
          "name": "_share",
          "type": "uint256"
        }
      ],
      "name": "leave",
      "outputs": [],
      "stateMutability": "nonpayable",
      "type": "function"
    },
    {
      "inputs": [],
      "name": "name",
      "outputs": [
        {
          "internalType": "string",
          "name": "",
          "type": "string"
        }
      ],
      "stateMutability": "view",
      "type": "function"
    },
    {
      "inputs": [
        {
          "internalType": "address",
          "name": "owner",
          "type": "address"
        }
      ],
      "name": "nonces",
      "outputs": [
        {
          "internalType": "uint256",
          "name": "",
          "type": "uint256"
        }
      ],
      "stateMutability": "view",
      "type": "function"
    },
    {
      "inputs": [
        {
          "internalType": "address",
          "name": "",
          "type": "address"
        },
        {
          "internalType": "address",
          "name": "",
          "type": "address"
        },
        {
          "internalType": "uint256[]",
          "name": "",
          "type": "uint256[]"
        },
        {
          "internalType": "uint256[]",
          "name": "",
          "type": "uint256[]"
        },
        {
          "internalType": "bytes",
          "name": "",
          "type": "bytes"
        }
      ],
      "name": "onERC1155BatchReceived",
      "outputs": [
        {
          "internalType": "bytes4",
          "name": "",
          "type": "bytes4"
        }
      ],
      "stateMutability": "pure",
      "type": "function"
    },
    {
      "inputs": [
        {
          "internalType": "address",
          "name": "",
          "type": "address"
        },
        {
          "internalType": "address",
          "name": "",
          "type": "address"
        },
        {
          "internalType": "uint256",
          "name": "",
          "type": "uint256"
        },
        {
          "internalType": "uint256",
          "name": "",
          "type": "uint256"
        },
        {
          "internalType": "bytes",
          "name": "",
          "type": "bytes"
        }
      ],
      "name": "onERC1155Received",
      "outputs": [
        {
          "internalType": "bytes4",
          "name": "",
          "type": "bytes4"
        }
      ],
      "stateMutability": "pure",
      "type": "function"
    },
    {
      "inputs": [],
      "name": "owner",
      "outputs": [
        {
          "internalType": "address",
          "name": "",
          "type": "address"
        }
      ],
      "stateMutability": "view",
      "type": "function"
    },
    {
      "inputs": [],
      "name": "paperhandsFeeBP",
      "outputs": [
        {
          "internalType": "uint16",
          "name": "",
          "type": "uint16"
        }
      ],
      "stateMutability": "view",
      "type": "function"
    },
    {
      "inputs": [],
      "name": "pause",
      "outputs": [],
      "stateMutability": "nonpayable",
      "type": "function"
    },
    {
      "inputs": [],
      "name": "paused",
      "outputs": [
        {
          "internalType": "bool",
          "name": "",
          "type": "bool"
        }
      ],
      "stateMutability": "view",
      "type": "function"
    },
    {
      "inputs": [
        {
          "internalType": "address",
          "name": "owner",
          "type": "address"
        },
        {
          "internalType": "address",
          "name": "spender",
          "type": "address"
        },
        {
          "internalType": "uint256",
          "name": "value",
          "type": "uint256"
        },
        {
          "internalType": "uint256",
          "name": "deadline",
          "type": "uint256"
        },
        {
          "internalType": "uint8",
          "name": "v",
          "type": "uint8"
        },
        {
          "internalType": "bytes32",
          "name": "r",
          "type": "bytes32"
        },
        {
          "internalType": "bytes32",
          "name": "s",
          "type": "bytes32"
        }
      ],
      "name": "permit",
      "outputs": [],
      "stateMutability": "nonpayable",
      "type": "function"
    },
    {
      "inputs": [
        {
          "internalType": "uint8",
          "name": "_ticketType",
          "type": "uint8"
        }
      ],
      "name": "priceForTicket",
      "outputs": [
        {
          "internalType": "uint256",
          "name": "",
          "type": "uint256"
        }
      ],
      "stateMutability": "view",
      "type": "function"
    },
    {
      "inputs": [],
      "name": "rate",
      "outputs": [
        {
          "internalType": "uint256",
          "name": "",
          "type": "uint256"
        }
      ],
      "stateMutability": "view",
      "type": "function"
    },
    {
      "inputs": [],
      "name": "renounceOwnership",
      "outputs": [],
      "stateMutability": "nonpayable",
      "type": "function"
    },
    {
      "inputs": [
        {
          "internalType": "uint256",
          "name": "_newRate",
          "type": "uint256"
        }
      ],
      "name": "setFrens",
      "outputs": [],
      "stateMutability": "nonpayable",
      "type": "function"
    },
    {
      "inputs": [
        {
          "internalType": "bytes4",
          "name": "interfaceId",
          "type": "bytes4"
        }
      ],
      "name": "supportsInterface",
      "outputs": [
        {
          "internalType": "bool",
          "name": "",
          "type": "bool"
        }
      ],
      "stateMutability": "view",
      "type": "function"
    },
    {
      "inputs": [
        {
          "internalType": "uint8",
          "name": "_ticketType",
          "type": "uint8"
        },
        {
          "internalType": "uint8",
          "name": "_ticketAmount",
          "type": "uint8"
        }
      ],
      "name": "swapGhstForTicket",
      "outputs": [],
      "stateMutability": "nonpayable",
      "type": "function"
    },
    {
      "inputs": [
        {
          "internalType": "uint8",
          "name": "_ticketType",
          "type": "uint8"
        },
        {
          "internalType": "uint8",
          "name": "_ticketAmount",
          "type": "uint8"
        }
      ],
      "name": "swapStakeForTicket",
      "outputs": [],
      "stateMutability": "nonpayable",
      "type": "function"
    },
    {
      "inputs": [
        {
          "internalType": "uint256[]",
          "name": "_ticketTypes",
          "type": "uint256[]"
        },
        {
          "internalType": "uint256[]",
          "name": "_ticketValues",
          "type": "uint256[]"
        }
      ],
      "name": "swapStakeForTickets",
      "outputs": [],
      "stateMutability": "nonpayable",
      "type": "function"
    },
    {
      "inputs": [],
      "name": "symbol",
      "outputs": [
        {
          "internalType": "string",
          "name": "",
          "type": "string"
        }
      ],
      "stateMutability": "view",
      "type": "function"
    },
    {
      "inputs": [
        {
          "internalType": "uint8",
          "name": "",
          "type": "uint8"
        }
      ],
      "name": "ticketFloor",
      "outputs": [
        {
          "internalType": "uint256",
          "name": "",
          "type": "uint256"
        }
      ],
      "stateMutability": "view",
      "type": "function"
    },
    {
      "inputs": [],
      "name": "totalSupply",
      "outputs": [
        {
          "internalType": "uint256",
          "name": "",
          "type": "uint256"
        }
      ],
      "stateMutability": "view",
      "type": "function"
    },
    {
      "inputs": [
        {
          "internalType": "address",
          "name": "recipient",
          "type": "address"
        },
        {
          "internalType": "uint256",
          "name": "amount",
          "type": "uint256"
        }
      ],
      "name": "transfer",
      "outputs": [
        {
          "internalType": "bool",
          "name": "",
          "type": "bool"
        }
      ],
      "stateMutability": "nonpayable",
      "type": "function"
    },
    {
      "inputs": [
        {
          "internalType": "address",
          "name": "sender",
          "type": "address"
        },
        {
          "internalType": "address",
          "name": "recipient",
          "type": "address"
        },
        {
          "internalType": "uint256",
          "name": "amount",
          "type": "uint256"
        }
      ],
      "name": "transferFrom",
      "outputs": [
        {
          "internalType": "bool",
          "name": "",
          "type": "bool"
        }
      ],
      "stateMutability": "nonpayable",
      "type": "function"
    },
    {
      "inputs": [
        {
          "internalType": "address",
          "name": "newOwner",
          "type": "address"
        }
      ],
      "name": "transferOwnership",
      "outputs": [],
      "stateMutability": "nonpayable",
      "type": "function"
    },
    {
      "inputs": [],
      "name": "unpause",
      "outputs": [],
      "stateMutability": "nonpayable",
      "type": "function"
    },
    {
      "inputs": [
        {
          "internalType": "address",
          "name": "",
          "type": "address"
        }
      ],
      "name": "userBuyLimit",
      "outputs": [
        {
          "internalType": "uint256",
          "name": "",
          "type": "uint256"
        }
      ],
      "stateMutability": "view",
      "type": "function"
    }
  ],
  "bytecode": "0x6101406040527f6e71edae12b1b97f4d1f60370fef10105fa2faae0126114a169c64845d6126c9610120908152503480156200003a57600080fd5b506040518060400160405280601381526020017f436f6d706f756e64696e672073746b4748535400000000000000000000000000815250806040518060400160405280600181526020017f31000000000000000000000000000000000000000000000000000000000000008152506040518060400160405280601381526020017f436f6d706f756e64696e672073746b47485354000000000000000000000000008152506040518060400160405280600881526020017f6373746b4748535400000000000000000000000000000000000000000000000081525081600390805190602001906200012c929190620005d7565b50806004908051906020019062000145929190620005d7565b5050506000600560006101000a81548160ff0219169083151502179055506200018362000177620004cd60201b60201c565b620004d560201b60201c565b60008280519060200120905060008280519060200120905060007f8b73c3c69bb8fe3d512ecc4cf759cc79239f7b179b0ffacaa9a75d522b39400f90508260c081815250508160e081815250504660a08181525050620001eb8184846200059b60201b60201c565b608081815250508061010081815250505050505050506000600860146101000a81548161ffff021916908361ffff1602179055506000600860166101000a81548161ffff021916908361ffff16021790555073385eeac5cb85a38a9a07a70c73e0a3271cfb54a7600760006101000a81548173ffffffffffffffffffffffffffffffffffffffff021916908373ffffffffffffffffffffffffffffffffffffffff16021790555073a02d547512bb90002807499f05495fe9c4c3943f600860006101000a81548173ffffffffffffffffffffffffffffffffffffffff021916908373ffffffffffffffffffffffffffffffffffffffff160217905550600760009054906101000a900473ffffffffffffffffffffffffffffffffffffffff1673ffffffffffffffffffffffffffffffffffffffff1663095ea7b3600860009054906101000a900473ffffffffffffffffffffffffffffffffffffffff167fffffffffffffffffffffffffffffffffffffffffffffffffffffffffffffffff6040518363ffffffff1660e01b81526004016200038892919062000714565b602060405180830381600087803b158015620003a357600080fd5b505af1158015620003b8573d6000803e3d6000fd5b505050506040513d601f19601f82011682018060405250810190620003de91906200069e565b506001600c60008060ff168152602001908152602001600020819055506001600c6000600160ff168152602001908152602001600020819055506002600c6000600260ff168152602001908152602001600020819055506004600c6000600360ff16815260200190815260200160002081905550600f600c6000600460ff168152602001908152602001600020819055506041600c6000600560ff16815260200190815260200160002081905550600e600c6000600660ff168152602001908152602001600020819055506791b77e5e5d9a0000600a819055506714d1120d7b1600006009819055506200088a565b600033905090565b6000600560019054906101000a900473ffffffffffffffffffffffffffffffffffffffff16905081600560016101000a81548173ffffffffffffffffffffffffffffffffffffffff021916908373ffffffffffffffffffffffffffffffffffffffff1602179055508173ffffffffffffffffffffffffffffffffffffffff168173ffffffffffffffffffffffffffffffffffffffff167f8be0079c531659141344cd1fd0a4f28419497f9722a3daafe3b4186f6b6457e060405160405180910390a35050565b60008383834630604051602001620005b895949392919062000741565b6040516020818303038152906040528051906020012090509392505050565b828054620005e59062000806565b90600052602060002090601f01602090048101928262000609576000855562000655565b82601f106200062457805160ff191683800117855562000655565b8280016001018555821562000655579182015b828111156200065457825182559160200191906001019062000637565b5b50905062000664919062000668565b5090565b5b808211156200068357600081600090555060010162000669565b5090565b600081519050620006988162000870565b92915050565b600060208284031215620006b757620006b66200086b565b5b6000620006c78482850162000687565b91505092915050565b620006db816200079e565b82525050565b620006ec81620007be565b82525050565b620006fd81620007f2565b82525050565b6200070e81620007e8565b82525050565b60006040820190506200072b6000830185620006d0565b6200073a6020830184620006f2565b9392505050565b600060a082019050620007586000830188620006e1565b620007676020830187620006e1565b620007766040830186620006e1565b62000785606083018562000703565b620007946080830184620006d0565b9695505050505050565b6000620007ab82620007c8565b9050919050565b60008115159050919050565b6000819050919050565b600073ffffffffffffffffffffffffffffffffffffffff82169050919050565b6000819050919050565b6000620007ff82620007e8565b9050919050565b600060028204905060018216806200081f57607f821691505b602082108114156200083657620008356200083c565b5b50919050565b7f4e487b7100000000000000000000000000000000000000000000000000000000600052602260045260246000fd5b600080fd5b6200087b81620007b2565b81146200088757600080fd5b50565b60805160a05160c05160e05161010051610120516155da620008da6000396000611ca80152600061285c0152600061289e0152600061287d015260006128090152600061283101526155da6000f3fe608060405234801561001057600080fd5b506004361061025e5760003560e01c80637ecebe0011610146578063ab454543116100c3578063d9cf506c11610087578063d9cf506c14610713578063dd62ed3e14610743578063e44ddc2214610773578063eecb712b14610791578063f23a6e61146107af578063f2fde38b146107df5761025e565b8063ab45454314610671578063bc197c811461068d578063c2412676146106bd578063d505accf146106db578063d8840612146106f75761025e565b80639f8029201161010a5780639f802920146105a7578063a457c2d7146105d7578063a59f3e0c14610607578063a666750714610623578063a9059cbb146106415761025e565b80637ecebe0014610515578063803841ed146105455780638456cb59146105615780638da5cb5b1461056b57806395d89b41146105895761025e565b80633644e515116101df57806354747a70116101a357806354747a70146104675780635c975abb1461048557806367dfd4c9146104a357806370a08231146104bf578063715018a6146104ef57806379cc6790146104f95761025e565b80633644e515146103d557806339509351146103f35780633ba0b9a9146104235780633f4ba83a1461044157806342966c681461044b5761025e565b806323b872dd1161022657806323b872dd1461031b5780632c4e722e1461034b578063313ce5671461036957806333ff55f21461038757806334479656146103a55761025e565b806301ffc9a71461026357806306fdde0314610293578063095ea7b3146102b157806317a7d2d1146102e157806318160ddd146102fd575b600080fd5b61027d60048036038101906102789190613919565b6107fb565b60405161028a91906141dc565b60405180910390f35b61029b610875565b6040516102a8919061435c565b60405180910390f35b6102cb60048036038101906102c6919061382b565b610907565b6040516102d891906141dc565b60405180910390f35b6102fb60048036038101906102f69190613a0d565b610925565b005b610305610a95565b6040516103129190614747565b60405180910390f35b6103356004803603810190610330919061369c565b610a9f565b60405161034291906141dc565b60405180910390f35b610353610b97565b6040516103609190614747565b60405180910390f35b610371610b9d565b60405161037e919061477d565b60405180910390f35b61038f610ba6565b60405161039c9190614341565b60405180910390f35b6103bf60048036038101906103ba91906139e0565b610bcc565b6040516103cc9190614747565b60405180910390f35b6103dd610c0d565b6040516103ea91906141f7565b60405180910390f35b61040d6004803603810190610408919061382b565b610c1c565b60405161041a91906141dc565b60405180910390f35b61042b610cc8565b6040516104389190614747565b60405180910390f35b610449610dc0565b005b61046560048036038101906104609190613946565b610e46565b005b61046f610e5a565b60405161047c919061472c565b60405180910390f35b61048d610e6e565b60405161049a91906141dc565b60405180910390f35b6104bd60048036038101906104b89190613946565b610e85565b005b6104d960048036038101906104d49190613553565b611029565b6040516104e69190614747565b60405180910390f35b6104f7611071565b005b610513600480360381019061050e919061382b565b6110f9565b005b61052f600480360381019061052a9190613553565b611174565b60405161053c9190614747565b60405180910390f35b61055f600480360381019061055a9190613a0d565b6111c4565b005b610569611639565b005b6105736116bf565b604051610580919061401f565b60405180910390f35b6105916116e9565b60405161059e919061435c565b60405180910390f35b6105c160048036038101906105bc91906139e0565b61177b565b6040516105ce9190614747565b60405180910390f35b6105f160048036038101906105ec919061382b565b611793565b6040516105fe91906141dc565b60405180910390f35b610621600480360381019061061c9190613946565b61187e565b005b61062b611b0f565b604051610638919061472c565b60405180910390f35b61065b6004803603810190610656919061382b565b611b23565b60405161066891906141dc565b60405180910390f35b61068b60048036038101906106869190613946565b611b41565b005b6106a760048036038101906106a291906135c0565b611c0a565b6040516106b4919061430b565b60405180910390f35b6106c5611c3b565b6040516106d29190614326565b60405180910390f35b6106f560048036038101906106f09190613789565b611c61565b005b610711600480360381019061070c919061386b565b611da3565b005b61072d60048036038101906107289190613553565b612168565b60405161073a9190614747565b60405180910390f35b61075d60048036038101906107589190613580565b612180565b60405161076a9190614747565b60405180910390f35b61077b612207565b604051610788919061477d565b60405180910390f35b61079961221a565b6040516107a69190614747565b60405180910390f35b6107c960048036038101906107c491906136ef565b612220565b6040516107d6919061430b565b60405180910390f35b6107f960048036038101906107f49190613553565b61224f565b005b60007f4e2312e0000000000000000000000000000000000000000000000000000000007bffffffffffffffffffffffffffffffffffffffffffffffffffffffff1916827bffffffffffffffffffffffffffffffffffffffffffffffffffffffff1916148061086e575061086d82612347565b5b9050919050565b60606003805461088490614c0f565b80601f01602080910402602001604051908101604052809291908181526020018280546108b090614c0f565b80156108fd5780601f106108d2576101008083540402835291602001916108fd565b820191906000526020600020905b8154815290600101906020018083116108e057829003601f168201915b5050505050905090565b600061091b6109146123b1565b84846123b9565b6001905092915050565b6000600860009054906101000a900473ffffffffffffffffffffffffffffffffffffffff1673ffffffffffffffffffffffffffffffffffffffff1663f8a6103f846040518263ffffffff1660e01b81526004016109829190614762565b60206040518083038186803b15801561099a57600080fd5b505afa1580156109ae573d6000803e3d6000fd5b505050506040513d601f19601f820116820180604052508101906109d29190613973565b905060008111610a17576040517f08c379a0000000000000000000000000000000000000000000000000000000008152600401610a0e906146ac565b60405180910390fd5b60008260ff16610a2685610bcc565b610a309190614a4c565b905080610a3c33611029565b11610a7c576040517f08c379a0000000000000000000000000000000000000000000000000000000008152600401610a739061466c565b60405180910390fd5b610a858161187e565b610a8f84846111c4565b50505050565b6000600254905090565b6000610aac848484612584565b6000600160008673ffffffffffffffffffffffffffffffffffffffff1673ffffffffffffffffffffffffffffffffffffffff1681526020019081526020016000206000610af76123b1565b73ffffffffffffffffffffffffffffffffffffffff1673ffffffffffffffffffffffffffffffffffffffff16815260200190815260200160002054905082811015610b77576040517f08c379a0000000000000000000000000000000000000000000000000000000008152600401610b6e906145cc565b60405180910390fd5b610b8b85610b836123b1565b8584036123b9565b60019150509392505050565b600a5481565b60006012905090565b600860009054906101000a900473ffffffffffffffffffffffffffffffffffffffff1681565b6000610bd6610b9d565b600a610be2919061492e565b600c60008460ff1660ff16815260200190815260200160002054610c069190614a4c565b9050919050565b6000610c17612805565b905090565b6000610cbe610c296123b1565b848460016000610c376123b1565b73ffffffffffffffffffffffffffffffffffffffff1673ffffffffffffffffffffffffffffffffffffffff16815260200190815260200160002060008873ffffffffffffffffffffffffffffffffffffffff1673ffffffffffffffffffffffffffffffffffffffff16815260200190815260200160002054610cb99190614809565b6123b9565b6001905092915050565b600080600860009054906101000a900473ffffffffffffffffffffffffffffffffffffffff1673ffffffffffffffffffffffffffffffffffffffff166398807d84306040518263ffffffff1660e01b8152600401610d26919061401f565b604080518083038186803b158015610d3d57600080fd5b505afa158015610d51573d6000803e3d6000fd5b505050506040513d601f19601f82011682018060405250810190610d7591906139a0565b5090506000610d82610a95565b90506000811480610d935750600082145b15610da357600092505050610dbd565b610db88282610db0610b9d565b60ff166128c8565b925050505b90565b610dc86123b1565b73ffffffffffffffffffffffffffffffffffffffff16610de66116bf565b73ffffffffffffffffffffffffffffffffffffffff1614610e3c576040517f08c379a0000000000000000000000000000000000000000000000000000000008152600401610e33906145ec565b60405180910390fd5b610e446128f6565b565b610e57610e516123b1565b82612998565b50565b600860149054906101000a900461ffff1681565b6000600560009054906101000a900460ff16905090565b6000610e9033611029565b905060008111156110255780821115610ea7578091505b6000610eb1610cc8565b610eb9610b9d565b600a610ec5919061492e565b84610ed0919061485f565b610eda9190614a4c565b9050610ee63384612998565b600860009054906101000a900473ffffffffffffffffffffffffffffffffffffffff1673ffffffffffffffffffffffffffffffffffffffff16639c0dfa01826040518263ffffffff1660e01b8152600401610f419190614747565b600060405180830381600087803b158015610f5b57600080fd5b505af1158015610f6f573d6000803e3d6000fd5b50505050600760009054906101000a900473ffffffffffffffffffffffffffffffffffffffff1673ffffffffffffffffffffffffffffffffffffffff1663a9059cbb33836040518363ffffffff1660e01b8152600401610fd0929190614141565b602060405180830381600087803b158015610fea57600080fd5b505af1158015610ffe573d6000803e3d6000fd5b505050506040513d601f19601f8201168201806040525081019061102291906138ec565b50505b5050565b60008060008373ffffffffffffffffffffffffffffffffffffffff1673ffffffffffffffffffffffffffffffffffffffff168152602001908152602001600020549050919050565b6110796123b1565b73ffffffffffffffffffffffffffffffffffffffff166110976116bf565b73ffffffffffffffffffffffffffffffffffffffff16146110ed576040517f08c379a00000000000000000000000000000000000000000000000000000000081526004016110e4906145ec565b60405180910390fd5b6110f76000612b6f565b565b600061110c836111076123b1565b612180565b905081811015611151576040517f08c379a00000000000000000000000000000000000000000000000000000000081526004016111489061460c565b60405180910390fd5b6111658361115d6123b1565b8484036123b9565b61116f8383612998565b505050565b60006111bd600660008473ffffffffffffffffffffffffffffffffffffffff1673ffffffffffffffffffffffffffffffffffffffff168152602001908152602001600020612c35565b9050919050565b6000600860009054906101000a900473ffffffffffffffffffffffffffffffffffffffff1673ffffffffffffffffffffffffffffffffffffffff1663f8a6103f846040518263ffffffff1660e01b81526004016112219190614762565b60206040518083038186803b15801561123957600080fd5b505afa15801561124d573d6000803e3d6000fd5b505050506040513d601f19601f820116820180604052508101906112719190613973565b9050600081116112b6576040517f08c379a00000000000000000000000000000000000000000000000000000000081526004016112ad906146ac565b60405180910390fd5b60008260ff166112c585610bcc565b6112cf9190614a4c565b9050806112db33611029565b1161131b576040517f08c379a00000000000000000000000000000000000000000000000000000000081526004016113129061440c565b60405180910390fd5b60008360ff168361132c9190614a4c565b90506000600860009054906101000a900473ffffffffffffffffffffffffffffffffffffffff1673ffffffffffffffffffffffffffffffffffffffff16634b334ef6306040518263ffffffff1660e01b815260040161138b919061401f565b60206040518083038186803b1580156113a357600080fd5b505afa1580156113b7573d6000803e3d6000fd5b505050506040513d601f19601f820116820180604052508101906113db9190613973565b905081811161141f576040517f08c379a00000000000000000000000000000000000000000000000000000000081526004016114169061470c565b60405180910390fd5b6000600167ffffffffffffffff81111561143c5761143b614d7f565b5b60405190808252806020026020018201604052801561146a5781602001602082028036833780820191505090505b5090508660ff168160008151811061148557611484614d50565b5b6020026020010181815250506000600167ffffffffffffffff8111156114ae576114ad614d7f565b5b6040519080825280602002602001820160405280156114dc5781602001602082028036833780820191505090505b5090508660ff16816000815181106114f7576114f6614d50565b5b602002602001018181525050600860009054906101000a900473ffffffffffffffffffffffffffffffffffffffff1673ffffffffffffffffffffffffffffffffffffffff1663aa061d0983836040518363ffffffff1660e01b81526004016115609291906141a5565b600060405180830381600087803b15801561157a57600080fd5b505af115801561158e573d6000803e3d6000fd5b5050505061159c3386612998565b600860009054906101000a900473ffffffffffffffffffffffffffffffffffffffff1673ffffffffffffffffffffffffffffffffffffffff16632eb2c2d6303385856040518563ffffffff1660e01b81526004016115fd94939291906140a4565b600060405180830381600087803b15801561161757600080fd5b505af115801561162b573d6000803e3d6000fd5b505050505050505050505050565b6116416123b1565b73ffffffffffffffffffffffffffffffffffffffff1661165f6116bf565b73ffffffffffffffffffffffffffffffffffffffff16146116b5576040517f08c379a00000000000000000000000000000000000000000000000000000000081526004016116ac906145ec565b60405180910390fd5b6116bd612c43565b565b6000600560019054906101000a900473ffffffffffffffffffffffffffffffffffffffff16905090565b6060600480546116f890614c0f565b80601f016020809104026020016040519081016040528092919081815260200182805461172490614c0f565b80156117715780601f1061174657610100808354040283529160200191611771565b820191906000526020600020905b81548152906001019060200180831161175457829003601f168201915b5050505050905090565b600c6020528060005260406000206000915090505481565b600080600160006117a26123b1565b73ffffffffffffffffffffffffffffffffffffffff1673ffffffffffffffffffffffffffffffffffffffff16815260200190815260200160002060008573ffffffffffffffffffffffffffffffffffffffff1673ffffffffffffffffffffffffffffffffffffffff1681526020019081526020016000205490508281101561185f576040517f08c379a0000000000000000000000000000000000000000000000000000000008152600401611856906146cc565b60405180910390fd5b61187361186a6123b1565b858584036123b9565b600191505092915050565b611886610e6e565b156118c6576040517f08c379a00000000000000000000000000000000000000000000000000000000081526004016118bd9061456c565b60405180910390fd5b6000600760009054906101000a900473ffffffffffffffffffffffffffffffffffffffff1673ffffffffffffffffffffffffffffffffffffffff166370a08231306040518263ffffffff1660e01b8152600401611923919061401f565b60206040518083038186803b15801561193b57600080fd5b505afa15801561194f573d6000803e3d6000fd5b505050506040513d601f19601f820116820180604052508101906119739190613973565b9050600061197f610a95565b9050600760009054906101000a900473ffffffffffffffffffffffffffffffffffffffff1673ffffffffffffffffffffffffffffffffffffffff166323b872dd3330866040518463ffffffff1660e01b81526004016119e09392919061410a565b602060405180830381600087803b1580156119fa57600080fd5b505af1158015611a0e573d6000803e3d6000fd5b505050506040513d601f19601f82011682018060405250810190611a3291906138ec565b50600860009054906101000a900473ffffffffffffffffffffffffffffffffffffffff1673ffffffffffffffffffffffffffffffffffffffff166388fa5b04846040518263ffffffff1660e01b8152600401611a8e9190614747565b600060405180830381600087803b158015611aa857600080fd5b505af1158015611abc573d6000803e3d6000fd5b505050506000811480611acf5750600082145b15611ae357611ade3384612ce6565b611b0a565b6000828285611af29190614a4c565b611afc919061485f565b9050611b083382612ce6565b505b505050565b600860169054906101000a900461ffff1681565b6000611b37611b306123b1565b8484612584565b6001905092915050565b611b496123b1565b73ffffffffffffffffffffffffffffffffffffffff16611b676116bf565b73ffffffffffffffffffffffffffffffffffffffff1614611bbd576040517f08c379a0000000000000000000000000000000000000000000000000000000008152600401611bb4906145ec565b60405180910390fd5b60008111611c00576040517f08c379a0000000000000000000000000000000000000000000000000000000008152600401611bf7906144ec565b60405180910390fd5b8060098190555050565b60007fbc197c819b3e337a6f9652dd10becd7eef83032af3b9d958d3d42f6694146621905098975050505050505050565b600760009054906101000a900473ffffffffffffffffffffffffffffffffffffffff1681565b83421115611ca4576040517f08c379a0000000000000000000000000000000000000000000000000000000008152600401611c9b9061450c565b60405180910390fd5b60007f0000000000000000000000000000000000000000000000000000000000000000888888611cd38c612e46565b89604051602001611ce996959493929190614212565b6040516020818303038152906040528051906020012090506000611d0c82612ea4565b90506000611d1c82878787612ebe565b90508973ffffffffffffffffffffffffffffffffffffffff168173ffffffffffffffffffffffffffffffffffffffff1614611d8c576040517f08c379a0000000000000000000000000000000000000000000000000000000008152600401611d83906145ac565b60405180910390fd5b611d978a8a8a6123b9565b50505050505050505050565b6000805b85859050811015611ec6576000868683818110611dc757611dc6614d50565b5b9050602002013590506000600860009054906101000a900473ffffffffffffffffffffffffffffffffffffffff1673ffffffffffffffffffffffffffffffffffffffff1663f8a6103f836040518263ffffffff1660e01b8152600401611e2d9190614747565b60206040518083038186803b158015611e4557600080fd5b505afa158015611e59573d6000803e3d6000fd5b505050506040513d601f19601f82011682018060405250810190611e7d9190613973565b9050858584818110611e9257611e91614d50565b5b9050602002013581611ea49190614a4c565b84611eaf9190614809565b935050508080611ebe90614c41565b915050611da7565b506000600860009054906101000a900473ffffffffffffffffffffffffffffffffffffffff1673ffffffffffffffffffffffffffffffffffffffff16634b334ef6306040518263ffffffff1660e01b8152600401611f24919061401f565b60206040518083038186803b158015611f3c57600080fd5b505afa158015611f50573d6000803e3d6000fd5b505050506040513d601f19601f82011682018060405250810190611f749190613973565b9050611f996040518060600160405280602e8152602001615577602e91398383612ee9565b818111611fdb576040517f08c379a0000000000000000000000000000000000000000000000000000000008152600401611fd29061470c565b60405180910390fd5b6000600183611fea9190614a4c565b905061202b6040518060400160405280601a81526020017f746f74616c436f7374206e65656420746f20627579203d20257300000000000081525082612f88565b600860009054906101000a900473ffffffffffffffffffffffffffffffffffffffff1673ffffffffffffffffffffffffffffffffffffffff1663aa061d09888888886040518563ffffffff1660e01b815260040161208c949392919061416a565b600060405180830381600087803b1580156120a657600080fd5b505af11580156120ba573d6000803e3d6000fd5b505050506120c83382612998565b600860009054906101000a900473ffffffffffffffffffffffffffffffffffffffff1673ffffffffffffffffffffffffffffffffffffffff16632eb2c2d630338a8a8a8a6040518763ffffffff1660e01b815260040161212d9695949392919061403a565b600060405180830381600087803b15801561214757600080fd5b505af115801561215b573d6000803e3d6000fd5b5050505050505050505050565b600b6020528060005260406000206000915090505481565b6000600160008473ffffffffffffffffffffffffffffffffffffffff1673ffffffffffffffffffffffffffffffffffffffff16815260200190815260200160002060008373ffffffffffffffffffffffffffffffffffffffff1673ffffffffffffffffffffffffffffffffffffffff16815260200190815260200160002054905092915050565b600860189054906101000a900460ff1681565b60095481565b60007ff23a6e612e1ff4830e658fe43f4e3cb4a5f8170bd5d9e69fb5d7a7fa9e4fdf9790509695505050505050565b6122576123b1565b73ffffffffffffffffffffffffffffffffffffffff166122756116bf565b73ffffffffffffffffffffffffffffffffffffffff16146122cb576040517f08c379a00000000000000000000000000000000000000000000000000000000081526004016122c2906145ec565b60405180910390fd5b600073ffffffffffffffffffffffffffffffffffffffff168173ffffffffffffffffffffffffffffffffffffffff16141561233b576040517f08c379a0000000000000000000000000000000000000000000000000000000008152600401612332906144ac565b60405180910390fd5b61234481612b6f565b50565b60007f01ffc9a7000000000000000000000000000000000000000000000000000000007bffffffffffffffffffffffffffffffffffffffffffffffffffffffff1916827bffffffffffffffffffffffffffffffffffffffffffffffffffffffff1916149050919050565b600033905090565b600073ffffffffffffffffffffffffffffffffffffffff168373ffffffffffffffffffffffffffffffffffffffff161415612429576040517f08c379a00000000000000000000000000000000000000000000000000000000081526004016124209061468c565b60405180910390fd5b600073ffffffffffffffffffffffffffffffffffffffff168273ffffffffffffffffffffffffffffffffffffffff161415612499576040517f08c379a0000000000000000000000000000000000000000000000000000000008152600401612490906144cc565b60405180910390fd5b80600160008573ffffffffffffffffffffffffffffffffffffffff1673ffffffffffffffffffffffffffffffffffffffff16815260200190815260200160002060008473ffffffffffffffffffffffffffffffffffffffff1673ffffffffffffffffffffffffffffffffffffffff168152602001908152602001600020819055508173ffffffffffffffffffffffffffffffffffffffff168373ffffffffffffffffffffffffffffffffffffffff167f8c5be1e5ebec7d5bd14f71427d1e84f3dd0314c0f7b2291e5b200ac8c7c3b925836040516125779190614747565b60405180910390a3505050565b600073ffffffffffffffffffffffffffffffffffffffff168373ffffffffffffffffffffffffffffffffffffffff1614156125f4576040517f08c379a00000000000000000000000000000000000000000000000000000000081526004016125eb9061464c565b60405180910390fd5b600073ffffffffffffffffffffffffffffffffffffffff168273ffffffffffffffffffffffffffffffffffffffff161415612664576040517f08c379a000000000000000000000000000000000000000000000000000000000815260040161265b9061442c565b60405180910390fd5b61266f838383613024565b60008060008573ffffffffffffffffffffffffffffffffffffffff1673ffffffffffffffffffffffffffffffffffffffff168152602001908152602001600020549050818110156126f5576040517f08c379a00000000000000000000000000000000000000000000000000000000081526004016126ec9061452c565b60405180910390fd5b8181036000808673ffffffffffffffffffffffffffffffffffffffff1673ffffffffffffffffffffffffffffffffffffffff16815260200190815260200160002081905550816000808573ffffffffffffffffffffffffffffffffffffffff1673ffffffffffffffffffffffffffffffffffffffff16815260200190815260200160002060008282546127889190614809565b925050819055508273ffffffffffffffffffffffffffffffffffffffff168473ffffffffffffffffffffffffffffffffffffffff167fddf252ad1be2c89b69c2b068fc378daa952ba7f163c4a11628f55a4df523b3ef846040516127ec9190614747565b60405180910390a36127ff84848461307c565b50505050565b60007f0000000000000000000000000000000000000000000000000000000000000000461415612857577f000000000000000000000000000000000000000000000000000000000000000090506128c5565b6128c27f00000000000000000000000000000000000000000000000000000000000000007f00000000000000000000000000000000000000000000000000000000000000007f0000000000000000000000000000000000000000000000000000000000000000613081565b90505b90565b60008282600a6128d891906148e3565b856128e39190614a4c565b6128ed919061485f565b90509392505050565b6128fe610e6e565b61293d576040517f08c379a00000000000000000000000000000000000000000000000000000000081526004016129349061444c565b60405180910390fd5b6000600560006101000a81548160ff0219169083151502179055507f5db9ee0a495bf2e6ff9c91a7834c1ba4fdd244a5e8aa4e537bd38aeae4b073aa6129816123b1565b60405161298e919061401f565b60405180910390a1565b600073ffffffffffffffffffffffffffffffffffffffff168273ffffffffffffffffffffffffffffffffffffffff161415612a08576040517f08c379a00000000000000000000000000000000000000000000000000000000081526004016129ff9061462c565b60405180910390fd5b612a1482600083613024565b60008060008473ffffffffffffffffffffffffffffffffffffffff1673ffffffffffffffffffffffffffffffffffffffff16815260200190815260200160002054905081811015612a9a576040517f08c379a0000000000000000000000000000000000000000000000000000000008152600401612a919061446c565b60405180910390fd5b8181036000808573ffffffffffffffffffffffffffffffffffffffff1673ffffffffffffffffffffffffffffffffffffffff168152602001908152602001600020819055508160026000828254612af19190614aa6565b92505081905550600073ffffffffffffffffffffffffffffffffffffffff168373ffffffffffffffffffffffffffffffffffffffff167fddf252ad1be2c89b69c2b068fc378daa952ba7f163c4a11628f55a4df523b3ef84604051612b569190614747565b60405180910390a3612b6a8360008461307c565b505050565b6000600560019054906101000a900473ffffffffffffffffffffffffffffffffffffffff16905081600560016101000a81548173ffffffffffffffffffffffffffffffffffffffff021916908373ffffffffffffffffffffffffffffffffffffffff1602179055508173ffffffffffffffffffffffffffffffffffffffff168173ffffffffffffffffffffffffffffffffffffffff167f8be0079c531659141344cd1fd0a4f28419497f9722a3daafe3b4186f6b6457e060405160405180910390a35050565b600081600001549050919050565b612c4b610e6e565b15612c8b576040517f08c379a0000000000000000000000000000000000000000000000000000000008152600401612c829061456c565b60405180910390fd5b6001600560006101000a81548160ff0219169083151502179055507f62e78cea01bee320cd4e420270b5ea74000d11b0c9f74754ebdbfc544b05a258612ccf6123b1565b604051612cdc919061401f565b60405180910390a1565b600073ffffffffffffffffffffffffffffffffffffffff168273ffffffffffffffffffffffffffffffffffffffff161415612d56576040517f08c379a0000000000000000000000000000000000000000000000000000000008152600401612d4d906146ec565b60405180910390fd5b612d6260008383613024565b8060026000828254612d749190614809565b92505081905550806000808473ffffffffffffffffffffffffffffffffffffffff1673ffffffffffffffffffffffffffffffffffffffff1681526020019081526020016000206000828254612dc99190614809565b925050819055508173ffffffffffffffffffffffffffffffffffffffff16600073ffffffffffffffffffffffffffffffffffffffff167fddf252ad1be2c89b69c2b068fc378daa952ba7f163c4a11628f55a4df523b3ef83604051612e2e9190614747565b60405180910390a3612e426000838361307c565b5050565b600080600660008473ffffffffffffffffffffffffffffffffffffffff1673ffffffffffffffffffffffffffffffffffffffff1681526020019081526020016000209050612e9381612c35565b9150612e9e816130bb565b50919050565b6000612eb7612eb1612805565b836130d1565b9050919050565b6000806000612ecf87878787613104565b91509150612edc81613211565b8192505050949350505050565b612f83838383604051602401612f01939291906143ae565b6040516020818303038152906040527f969cdd03000000000000000000000000000000000000000000000000000000007bffffffffffffffffffffffffffffffffffffffffffffffffffffffff19166020820180517bffffffffffffffffffffffffffffffffffffffffffffffffffffffff83818316178352505050506133e6565b505050565b6130208282604051602401612f9e92919061437e565b6040516020818303038152906040527f9710a9d0000000000000000000000000000000000000000000000000000000007bffffffffffffffffffffffffffffffffffffffffffffffffffffffff19166020820180517bffffffffffffffffffffffffffffffffffffffffffffffffffffffff83818316178352505050506133e6565b5050565b61302c610e6e565b1561306c576040517f08c379a00000000000000000000000000000000000000000000000000000000081526004016130639061456c565b60405180910390fd5b61307783838361340f565b505050565b505050565b6000838383463060405160200161309c959493929190614273565b6040516020818303038152906040528051906020012090509392505050565b6001816000016000828254019250508190555050565b600082826040516020016130e6929190613fe8565b60405160208183030381529060405280519060200120905092915050565b6000807f7fffffffffffffffffffffffffffffff5d576e7357a4501ddfe92f46681b20a08360001c111561313f576000600391509150613208565b601b8560ff16141580156131575750601c8560ff1614155b15613169576000600491509150613208565b60006001878787876040516000815260200160405260405161318e94939291906142c6565b6020604051602081039080840390855afa1580156131b0573d6000803e3d6000fd5b505050602060405103519050600073ffffffffffffffffffffffffffffffffffffffff168173ffffffffffffffffffffffffffffffffffffffff1614156131ff57600060019250925050613208565b80600092509250505b94509492505050565b6000600481111561322557613224614cf2565b5b81600481111561323857613237614cf2565b5b1415613243576133e3565b6001600481111561325757613256614cf2565b5b81600481111561326a57613269614cf2565b5b14156132ab576040517f08c379a00000000000000000000000000000000000000000000000000000000081526004016132a2906143ec565b60405180910390fd5b600260048111156132bf576132be614cf2565b5b8160048111156132d2576132d1614cf2565b5b1415613313576040517f08c379a000000000000000000000000000000000000000000000000000000000815260040161330a9061448c565b60405180910390fd5b6003600481111561332757613326614cf2565b5b81600481111561333a57613339614cf2565b5b141561337b576040517f08c379a00000000000000000000000000000000000000000000000000000000081526004016133729061454c565b60405180910390fd5b60048081111561338e5761338d614cf2565b5b8160048111156133a1576133a0614cf2565b5b14156133e2576040517f08c379a00000000000000000000000000000000000000000000000000000000081526004016133d99061458c565b60405180910390fd5b5b50565b60008151905060006a636f6e736f6c652e6c6f679050602083016000808483855afa5050505050565b505050565b600081359050613423816154ec565b92915050565b60008083601f84011261343f5761343e614db3565b5b8235905067ffffffffffffffff81111561345c5761345b614dae565b5b60208301915083602082028301111561347857613477614db8565b5b9250929050565b60008151905061348e81615503565b92915050565b6000813590506134a38161551a565b92915050565b6000813590506134b881615531565b92915050565b60008083601f8401126134d4576134d3614db3565b5b8235905067ffffffffffffffff8111156134f1576134f0614dae565b5b60208301915083600182028301111561350d5761350c614db8565b5b9250929050565b60008135905061352381615548565b92915050565b60008151905061353881615548565b92915050565b60008135905061354d8161555f565b92915050565b60006020828403121561356957613568614dc7565b5b600061357784828501613414565b91505092915050565b6000806040838503121561359757613596614dc7565b5b60006135a585828601613414565b92505060206135b685828601613414565b9150509250929050565b60008060008060008060008060a0898b0312156135e0576135df614dc7565b5b60006135ee8b828c01613414565b98505060206135ff8b828c01613414565b975050604089013567ffffffffffffffff8111156136205761361f614dbd565b5b61362c8b828c01613429565b9650965050606089013567ffffffffffffffff81111561364f5761364e614dbd565b5b61365b8b828c01613429565b9450945050608089013567ffffffffffffffff81111561367e5761367d614dbd565b5b61368a8b828c016134be565b92509250509295985092959890939650565b6000806000606084860312156136b5576136b4614dc7565b5b60006136c386828701613414565b93505060206136d486828701613414565b92505060406136e586828701613514565b9150509250925092565b60008060008060008060a0878903121561370c5761370b614dc7565b5b600061371a89828a01613414565b965050602061372b89828a01613414565b955050604061373c89828a01613514565b945050606061374d89828a01613514565b935050608087013567ffffffffffffffff81111561376e5761376d614dbd565b5b61377a89828a016134be565b92509250509295509295509295565b600080600080600080600060e0888a0312156137a8576137a7614dc7565b5b60006137b68a828b01613414565b97505060206137c78a828b01613414565b96505060406137d88a828b01613514565b95505060606137e98a828b01613514565b94505060806137fa8a828b0161353e565b93505060a061380b8a828b01613494565b92505060c061381c8a828b01613494565b91505092959891949750929550565b6000806040838503121561384257613841614dc7565b5b600061385085828601613414565b925050602061386185828601613514565b9150509250929050565b6000806000806040858703121561388557613884614dc7565b5b600085013567ffffffffffffffff8111156138a3576138a2614dbd565b5b6138af87828801613429565b9450945050602085013567ffffffffffffffff8111156138d2576138d1614dbd565b5b6138de87828801613429565b925092505092959194509250565b60006020828403121561390257613901614dc7565b5b60006139108482850161347f565b91505092915050565b60006020828403121561392f5761392e614dc7565b5b600061393d848285016134a9565b91505092915050565b60006020828403121561395c5761395b614dc7565b5b600061396a84828501613514565b91505092915050565b60006020828403121561398957613988614dc7565b5b600061399784828501613529565b91505092915050565b600080604083850312156139b7576139b6614dc7565b5b60006139c585828601613529565b92505060206139d685828601613529565b9150509250929050565b6000602082840312156139f6576139f5614dc7565b5b6000613a048482850161353e565b91505092915050565b60008060408385031215613a2457613a23614dc7565b5b6000613a328582860161353e565b9250506020613a438582860161353e565b9150509250929050565b6000613a598383613fac565b60208301905092915050565b613a6e81614ada565b82525050565b6000613a8083856147cb565b93507f07ffffffffffffffffffffffffffffffffffffffffffffffffffffffffffffff831115613ab357613ab2614dc2565b5b602083029250613ac4838584614bcd565b82840190509392505050565b6000613adb826147a8565b613ae581856147cb565b9350613af083614798565b8060005b83811015613b21578151613b088882613a4d565b9750613b13836147be565b925050600181019050613af4565b5085935050505092915050565b613b3781614aec565b82525050565b613b4681614af8565b82525050565b613b5d613b5882614af8565b614c8a565b82525050565b613b6c81614b02565b82525050565b613b7b81614b73565b82525050565b613b8a81614b97565b82525050565b6000613b9b826147b3565b613ba581856147ed565b9350613bb5818560208601614bdc565b613bbe81614dcc565b840191505092915050565b6000613bd66018836147ed565b9150613be182614dea565b602082019050919050565b6000613bf9602e836147ed565b9150613c0482614e13565b604082019050919050565b6000613c1c6023836147ed565b9150613c2782614e62565b604082019050919050565b6000613c3f6014836147ed565b9150613c4a82614eb1565b602082019050919050565b6000613c626022836147ed565b9150613c6d82614eda565b604082019050919050565b6000613c85601f836147ed565b9150613c9082614f29565b602082019050919050565b6000613ca86026836147ed565b9150613cb382614f52565b604082019050919050565b6000613ccb6022836147ed565b9150613cd682614fa1565b604082019050919050565b6000613cee602b836147ed565b9150613cf982614ff0565b604082019050919050565b6000613d116002836147fe565b9150613d1c8261503f565b600282019050919050565b6000613d34601d836147ed565b9150613d3f82615068565b602082019050919050565b6000613d576026836147ed565b9150613d6282615091565b604082019050919050565b6000613d7a6022836147ed565b9150613d85826150e0565b604082019050919050565b6000613d9d6010836147ed565b9150613da88261512f565b602082019050919050565b6000613dc06022836147ed565b9150613dcb82615158565b604082019050919050565b6000613de3601e836147ed565b9150613dee826151a7565b602082019050919050565b6000613e066028836147ed565b9150613e11826151d0565b604082019050919050565b6000613e296020836147ed565b9150613e348261521f565b602082019050919050565b6000613e4c6024836147ed565b9150613e5782615248565b604082019050919050565b6000613e6f6021836147ed565b9150613e7a82615297565b604082019050919050565b6000613e926025836147ed565b9150613e9d826152e6565b604082019050919050565b6000613eb56025836147ed565b9150613ec082615335565b604082019050919050565b6000613ed86000836147dc565b9150613ee382615384565b600082019050919050565b6000613efb6024836147ed565b9150613f0682615387565b604082019050919050565b6000613f1e6025836147ed565b9150613f29826153d6565b604082019050919050565b6000613f416025836147ed565b9150613f4c82615425565b604082019050919050565b6000613f64601f836147ed565b9150613f6f82615474565b602082019050919050565b6000613f87603e836147ed565b9150613f928261549d565b604082019050919050565b613fa681614b2e565b82525050565b613fb581614b5c565b82525050565b613fc481614b5c565b82525050565b613fd381614bbb565b82525050565b613fe281614b66565b82525050565b6000613ff382613d04565b9150613fff8285613b4c565b60208201915061400f8284613b4c565b6020820191508190509392505050565b60006020820190506140346000830184613a65565b92915050565b600060a08201905061404f6000830189613a65565b61405c6020830188613a65565b818103604083015261406f818688613a74565b90508181036060830152614084818486613a74565b9050818103608083015261409781613ecb565b9050979650505050505050565b600060a0820190506140b96000830187613a65565b6140c66020830186613a65565b81810360408301526140d88185613ad0565b905081810360608301526140ec8184613ad0565b905081810360808301526140ff81613ecb565b905095945050505050565b600060608201905061411f6000830186613a65565b61412c6020830185613a65565b6141396040830184613fbb565b949350505050565b60006040820190506141566000830185613a65565b6141636020830184613fbb565b9392505050565b60006040820190508181036000830152614185818688613a74565b9050818103602083015261419a818486613a74565b905095945050505050565b600060408201905081810360008301526141bf8185613ad0565b905081810360208301526141d38184613ad0565b90509392505050565b60006020820190506141f16000830184613b2e565b92915050565b600060208201905061420c6000830184613b3d565b92915050565b600060c0820190506142276000830189613b3d565b6142346020830188613a65565b6142416040830187613a65565b61424e6060830186613fbb565b61425b6080830185613fbb565b61426860a0830184613fbb565b979650505050505050565b600060a0820190506142886000830188613b3d565b6142956020830187613b3d565b6142a26040830186613b3d565b6142af6060830185613fbb565b6142bc6080830184613a65565b9695505050505050565b60006080820190506142db6000830187613b3d565b6142e86020830186613fd9565b6142f56040830185613b3d565b6143026060830184613b3d565b95945050505050565b60006020820190506143206000830184613b63565b92915050565b600060208201905061433b6000830184613b72565b92915050565b60006020820190506143566000830184613b81565b92915050565b600060208201905081810360008301526143768184613b90565b905092915050565b600060408201905081810360008301526143988185613b90565b90506143a76020830184613fbb565b9392505050565b600060608201905081810360008301526143c88186613b90565b90506143d76020830185613fbb565b6143e46040830184613fbb565b949350505050565b6000602082019050818103600083015261440581613bc9565b9050919050565b6000602082019050818103600083015261442581613bec565b9050919050565b6000602082019050818103600083015261444581613c0f565b9050919050565b6000602082019050818103600083015261446581613c32565b9050919050565b6000602082019050818103600083015261448581613c55565b9050919050565b600060208201905081810360008301526144a581613c78565b9050919050565b600060208201905081810360008301526144c581613c9b565b9050919050565b600060208201905081810360008301526144e581613cbe565b9050919050565b6000602082019050818103600083015261450581613ce1565b9050919050565b6000602082019050818103600083015261452581613d27565b9050919050565b6000602082019050818103600083015261454581613d4a565b9050919050565b6000602082019050818103600083015261456581613d6d565b9050919050565b6000602082019050818103600083015261458581613d90565b9050919050565b600060208201905081810360008301526145a581613db3565b9050919050565b600060208201905081810360008301526145c581613dd6565b9050919050565b600060208201905081810360008301526145e581613df9565b9050919050565b6000602082019050818103600083015261460581613e1c565b9050919050565b6000602082019050818103600083015261462581613e3f565b9050919050565b6000602082019050818103600083015261464581613e62565b9050919050565b6000602082019050818103600083015261466581613e85565b9050919050565b6000602082019050818103600083015261468581613ea8565b9050919050565b600060208201905081810360008301526146a581613eee565b9050919050565b600060208201905081810360008301526146c581613f11565b9050919050565b600060208201905081810360008301526146e581613f34565b9050919050565b6000602082019050818103600083015261470581613f57565b9050919050565b6000602082019050818103600083015261472581613f7a565b9050919050565b60006020820190506147416000830184613f9d565b92915050565b600060208201905061475c6000830184613fbb565b92915050565b60006020820190506147776000830184613fca565b92915050565b60006020820190506147926000830184613fd9565b92915050565b6000819050602082019050919050565b600081519050919050565b600081519050919050565b6000602082019050919050565b600082825260208201905092915050565b600082825260208201905092915050565b600082825260208201905092915050565b600081905092915050565b600061481482614b5c565b915061481f83614b5c565b9250827fffffffffffffffffffffffffffffffffffffffffffffffffffffffffffffffff0382111561485457614853614c94565b5b828201905092915050565b600061486a82614b5c565b915061487583614b5c565b92508261488557614884614cc3565b5b828204905092915050565b6000808291508390505b60018511156148da578086048111156148b6576148b5614c94565b5b60018516156148c55780820291505b80810290506148d385614ddd565b945061489a565b94509492505050565b60006148ee82614b5c565b91506148f983614b5c565b92506149267fffffffffffffffffffffffffffffffffffffffffffffffffffffffffffffffff8484614979565b905092915050565b600061493982614b5c565b915061494483614b66565b92506149717fffffffffffffffffffffffffffffffffffffffffffffffffffffffffffffffff8484614979565b905092915050565b6000826149895760019050614a45565b816149975760009050614a45565b81600181146149ad57600281146149b7576149e6565b6001915050614a45565b60ff8411156149c9576149c8614c94565b5b8360020a9150848211156149e0576149df614c94565b5b50614a45565b5060208310610133831016604e8410600b8410161715614a1b5782820a905083811115614a1657614a15614c94565b5b614a45565b614a288484846001614890565b92509050818404811115614a3f57614a3e614c94565b5b81810290505b9392505050565b6000614a5782614b5c565b9150614a6283614b5c565b9250817fffffffffffffffffffffffffffffffffffffffffffffffffffffffffffffffff0483118215151615614a9b57614a9a614c94565b5b828202905092915050565b6000614ab182614b5c565b9150614abc83614b5c565b925082821015614acf57614ace614c94565b5b828203905092915050565b6000614ae582614b3c565b9050919050565b60008115159050919050565b6000819050919050565b60007fffffffff0000000000000000000000000000000000000000000000000000000082169050919050565b600061ffff82169050919050565b600073ffffffffffffffffffffffffffffffffffffffff82169050919050565b6000819050919050565b600060ff82169050919050565b6000614b7e82614b85565b9050919050565b6000614b9082614b3c565b9050919050565b6000614ba282614ba9565b9050919050565b6000614bb482614b3c565b9050919050565b6000614bc682614b66565b9050919050565b82818337600083830152505050565b60005b83811015614bfa578082015181840152602081019050614bdf565b83811115614c09576000848401525b50505050565b60006002820490506001821680614c2757607f821691505b60208210811415614c3b57614c3a614d21565b5b50919050565b6000614c4c82614b5c565b91507fffffffffffffffffffffffffffffffffffffffffffffffffffffffffffffffff821415614c7f57614c7e614c94565b5b600182019050919050565b6000819050919050565b7f4e487b7100000000000000000000000000000000000000000000000000000000600052601160045260246000fd5b7f4e487b7100000000000000000000000000000000000000000000000000000000600052601260045260246000fd5b7f4e487b7100000000000000000000000000000000000000000000000000000000600052602160045260246000fd5b7f4e487b7100000000000000000000000000000000000000000000000000000000600052602260045260246000fd5b7f4e487b7100000000000000000000000000000000000000000000000000000000600052603260045260246000fd5b7f4e487b7100000000000000000000000000000000000000000000000000000000600052604160045260246000fd5b600080fd5b600080fd5b600080fd5b600080fd5b600080fd5b600080fd5b6000601f19601f8301169050919050565b60008160011c9050919050565b7f45434453413a20696e76616c6964207369676e61747572650000000000000000600082015250565b7f4572726f723a2043616e6e6f74206166666f726420746f20707572636861736560008201527f207468657365207469636b657473000000000000000000000000000000000000602082015250565b7f45524332303a207472616e7366657220746f20746865207a65726f206164647260008201527f6573730000000000000000000000000000000000000000000000000000000000602082015250565b7f5061757361626c653a206e6f7420706175736564000000000000000000000000600082015250565b7f45524332303a206275726e20616d6f756e7420657863656564732062616c616e60008201527f6365000000000000000000000000000000000000000000000000000000000000602082015250565b7f45434453413a20696e76616c6964207369676e6174757265206c656e67746800600082015250565b7f4f776e61626c653a206e6577206f776e657220697320746865207a65726f206160008201527f6464726573730000000000000000000000000000000000000000000000000000602082015250565b7f45524332303a20617070726f766520746f20746865207a65726f20616464726560008201527f7373000000000000000000000000000000000000000000000000000000000000602082015250565b7f4572726f723a20747279206e6f7420746f206c657420626f747320656174207960008201527f6f7572207469636b657473000000000000000000000000000000000000000000602082015250565b7f1901000000000000000000000000000000000000000000000000000000000000600082015250565b7f45524332305065726d69743a206578706972656420646561646c696e65000000600082015250565b7f45524332303a207472616e7366657220616d6f756e742065786365656473206260008201527f616c616e63650000000000000000000000000000000000000000000000000000602082015250565b7f45434453413a20696e76616c6964207369676e6174757265202773272076616c60008201527f7565000000000000000000000000000000000000000000000000000000000000602082015250565b7f5061757361626c653a2070617573656400000000000000000000000000000000600082015250565b7f45434453413a20696e76616c6964207369676e6174757265202776272076616c60008201527f7565000000000000000000000000000000000000000000000000000000000000602082015250565b7f45524332305065726d69743a20696e76616c6964207369676e61747572650000600082015250565b7f45524332303a207472616e7366657220616d6f756e742065786365656473206160008201527f6c6c6f77616e6365000000000000000000000000000000000000000000000000602082015250565b7f4f776e61626c653a2063616c6c6572206973206e6f7420746865206f776e6572600082015250565b7f45524332303a206275726e20616d6f756e74206578636565647320616c6c6f7760008201527f616e636500000000000000000000000000000000000000000000000000000000602082015250565b7f45524332303a206275726e2066726f6d20746865207a65726f2061646472657360008201527f7300000000000000000000000000000000000000000000000000000000000000602082015250565b7f45524332303a207472616e736665722066726f6d20746865207a65726f20616460008201527f6472657373000000000000000000000000000000000000000000000000000000602082015250565b7f4572726f723a204e6f7420656e6f756768204748535420746f2062757920746960008201527f636b657473000000000000000000000000000000000000000000000000000000602082015250565b50565b7f45524332303a20617070726f76652066726f6d20746865207a65726f2061646460008201527f7265737300000000000000000000000000000000000000000000000000000000602082015250565b7f4572726f723a20496e76616c696420707269636520666f72207468697320746960008201527f636b65742e000000000000000000000000000000000000000000000000000000602082015250565b7f45524332303a2064656372656173656420616c6c6f77616e63652062656c6f7760008201527f207a65726f000000000000000000000000000000000000000000000000000000602082015250565b7f45524332303a206d696e7420746f20746865207a65726f206164647265737300600082015250565b7f4572726f723a20436f6e747261637420646f65736e74206861766520656e6f7560008201527f6768206672656e7320666f7220726571756573746564207469636b6574730000602082015250565b6154f581614ada565b811461550057600080fd5b50565b61550c81614aec565b811461551757600080fd5b50565b61552381614af8565b811461552e57600080fd5b50565b61553a81614b02565b811461554557600080fd5b50565b61555181614b5c565b811461555c57600080fd5b50565b61556881614b66565b811461557357600080fd5b5056fe746f74616c4672656e73206e65656420746f20627579203d2025732c2063757272656e744672656e73203d202573a2646970667358221220317a8c15e6803c04addd1f323669bd8d8bcb84f2df721a237c989de080ae15a264736f6c63430008060033",
  "linkReferences": {},
  "deployedLinkReferences": {}
}